23:42:46.996332 ARP, Request who-has 10.0.0.4 tell 10.0.0.1, length 28
	0x0000:  ffff ffff ffff 0000 0000 0001 0806 0001  ................
	0x0010:  0800 0604 0001 0000 0000 0001 0a00 0001  ................
	0x0020:  0000 0000 0000 0a00 0004                 ..........
23:42:46.997397 ARP, Reply 10.0.0.4 is-at 00:00:00:00:00:04, length 28
	0x0000:  0000 0000 0001 0000 0000 0004 0806 0001  ................
	0x0010:  0800 0604 0002 0000 0000 0004 0a00 0004  ................
	0x0020:  0000 0000 0001 0a00 0001                 ..........
23:42:46.998009 IP 10.0.0.4 > 10.0.0.1: ICMP echo reply, id 7025, seq 1, length 64
	0x0000:  0000 0000 0001 0000 0000 0004 0800 4500  ..............E.
	0x0010:  0054 303f 0000 4001 3666 0a00 0004 0a00  .T0?..@.6f......
	0x0020:  0001 0000 fd98 1b71 0001 669c 7d53 0000  .......q..f.}S..
	0x0030:  0000 3532 0f00 0000 0000 1011 1213 1415  ..52............
	0x0040:  1617 1819 1a1b 1c1d 1e1f 2021 2223 2425  ...........!"#$%
	0x0050:  2627 2829 2a2b 2c2d 2e2f 3031 3233 3435  &'()*+,-./012345
	0x0060:  3637                                     67
23:42:52.010499 ARP, Request who-has 10.0.0.1 tell 10.0.0.4, length 28
	0x0000:  0000 0000 0001 0000 0000 0004 0806 0001  ................
	0x0010:  0800 0604 0001 0000 0000 0004 0a00 0004  ................
	0x0020:  0000 0000 0000 0a00 0001                 ..........

