23:42:46.997301 ARP, Request who-has 10.0.0.4 tell 10.0.0.1, length 28
	0x0000:  ffff ffff ffff 0000 0000 0001 0806 0001  ................
	0x0010:  0800 0604 0001 0000 0000 0001 0a00 0001  ................
	0x0020:  0000 0000 0000 0a00 0004                 ..........

